{
  "_format": "hh-sol-artifact-1",
  "contractName": "TodoList",
  "sourceName": "contracts/TodoList.sol",
  "abi": [
    {
      "anonymous": false,
      "inputs": [
        {
          "indexed": false,
          "internalType": "uint256",
          "name": "id",
          "type": "uint256"
        },
        {
          "indexed": false,
          "internalType": "string",
          "name": "content",
          "type": "string"
        }
      ],
      "name": "TaskCreated",
      "type": "event"
    },
    {
      "anonymous": false,
      "inputs": [
        {
          "indexed": false,
          "internalType": "uint256",
          "name": "id",
          "type": "uint256"
        }
      ],
      "name": "TaskDeleted",
      "type": "event"
    },
    {
      "anonymous": false,
      "inputs": [
        {
          "indexed": false,
          "internalType": "uint256",
          "name": "id",
          "type": "uint256"
        },
        {
          "indexed": false,
          "internalType": "bool",
          "name": "completed",
          "type": "bool"
        }
      ],
      "name": "TaskToggled",
      "type": "event"
    },
    {
      "inputs": [
        {
          "internalType": "string",
          "name": "_content",
          "type": "string"
        }
      ],
      "name": "createTask",
      "outputs": [],
      "stateMutability": "nonpayable",
      "type": "function"
    },
    {
      "inputs": [
        {
          "internalType": "uint256",
          "name": "_id",
          "type": "uint256"
        }
      ],
      "name": "deleteTask",
      "outputs": [],
      "stateMutability": "nonpayable",
      "type": "function"
    },
    {
      "inputs": [],
      "name": "getAllTasks",
      "outputs": [
        {
          "components": [
            {
              "internalType": "uint256",
              "name": "id",
              "type": "uint256"
            },
            {
              "internalType": "string",
              "name": "content",
              "type": "string"
            },
            {
              "internalType": "bool",
              "name": "completed",
              "type": "bool"
            },
            {
              "internalType": "bool",
              "name": "deleted",
              "type": "bool"
            }
          ],
          "internalType": "struct TodoList.Task[]",
          "name": "",
          "type": "tuple[]"
        }
      ],
      "stateMutability": "view",
      "type": "function"
    },
    {
      "inputs": [],
      "name": "taskCount",
      "outputs": [
        {
          "internalType": "uint256",
          "name": "",
          "type": "uint256"
        }
      ],
      "stateMutability": "view",
      "type": "function"
    },
    {
      "inputs": [
        {
          "internalType": "uint256",
          "name": "",
          "type": "uint256"
        }
      ],
      "name": "taskIds",
      "outputs": [
        {
          "internalType": "uint256",
          "name": "",
          "type": "uint256"
        }
      ],
      "stateMutability": "view",
      "type": "function"
    },
    {
      "inputs": [
        {
          "internalType": "uint256",
          "name": "",
          "type": "uint256"
        }
      ],
      "name": "tasks",
      "outputs": [
        {
          "internalType": "uint256",
          "name": "id",
          "type": "uint256"
        },
        {
          "internalType": "string",
          "name": "content",
          "type": "string"
        },
        {
          "internalType": "bool",
          "name": "completed",
          "type": "bool"
        },
        {
          "internalType": "bool",
          "name": "deleted",
          "type": "bool"
        }
      ],
      "stateMutability": "view",
      "type": "function"
    },
    {
      "inputs": [
        {
          "internalType": "uint256",
          "name": "_id",
          "type": "uint256"
        }
      ],
      "name": "toggleComplete",
      "outputs": [],
      "stateMutability": "nonpayable",
      "type": "function"
    }
  ],
  "bytecode": "0x60806040526000805534801561001457600080fd5b50611254806100246000396000f3fe608060405234801561001057600080fd5b506004361061007d5760003560e01c8063560f31921161005b578063560f3192146100ea578063779900b4146101065780638d97767214610124578063b6cb58a5146101575761007d565b80630951e5bd14610082578063111002aa1461009e57806339118d25146100ba575b600080fd5b61009c60048036038101906100979190610875565b610175565b005b6100b860048036038101906100b39190610907565b6102a1565b005b6100d460048036038101906100cf9190610875565b61044e565b6040516100e19190610963565b60405180910390f35b61010460048036038101906100ff9190610875565b610472565b005b61010e61057a565b60405161011b9190610b5d565b60405180910390f35b61013e60048036038101906101399190610875565b610731565b60405161014e9493929190610bd8565b60405180910390f35b61015f610803565b60405161016c9190610963565b60405180910390f35b600060016000838152602001908152602001600020905060008160000154036101d3576040517f08c379a00000000000000000000000000000000000000000000000000000000081526004016101ca90610c70565b60405180910390fd5b8060020160019054906101000a900460ff1615610225576040517f08c379a000000000000000000000000000000000000000000000000000000000815260040161021c90610cdc565b60405180910390fd5b8060020160009054906101000a900460ff16158160020160006101000a81548160ff0219169083151502179055507fe668c7a227d9261aa1f964bf5a852ab642446a7af6c29405caf8d0e9ce2c11f0828260020160009054906101000a900460ff16604051610295929190610cfc565b60405180910390a15050565b600082829050116102e7576040517f08c379a00000000000000000000000000000000000000000000000000000000081526004016102de90610d71565b60405180910390fd5b6000808154809291906102f990610dc0565b91905055506040518060800160405280600054815260200183838080601f016020809104026020016040519081016040528093929190818152602001838380828437600081840152601f19601f82011690508083019250505050505050815260200160001515815260200160001515815250600160008054815260200190815260200160002060008201518160000155602082015181600101908161039e9190611043565b5060408201518160020160006101000a81548160ff02191690831515021790555060608201518160020160016101000a81548160ff021916908315150217905550905050600260005490806001815401808255809150506001900390600052602060002001600090919091909150557fa5ed9e6226c584326505694539c95cb0e3238ae09bcda5a65c00bbfdab1c6662600054838360405161044293929190611151565b60405180910390a15050565b6002818154811061045e57600080fd5b906000526020600020016000915090505481565b600060016000838152602001908152602001600020905060008160000154036104d0576040517f08c379a00000000000000000000000000000000000000000000000000000000081526004016104c790610c70565b60405180910390fd5b8060020160019054906101000a900460ff1615610522576040517f08c379a0000000000000000000000000000000000000000000000000000000008152600401610519906111cf565b60405180910390fd5b60018160020160016101000a81548160ff0219169083151502179055507fd078b251d950cc55c44340be1db732337ef4939a76e1367ee271ad2cb19c46af8260405161056e9190610963565b60405180910390a15050565b60606000600280549050905060008167ffffffffffffffff8111156105a2576105a1610e08565b5b6040519080825280602002602001820160405280156105db57816020015b6105c8610809565b8152602001906001900390816105c05790505b50905060005b82811015610728576001600060028381548110610601576106006111ef565b5b906000526020600020015481526020019081526020016000206040518060800160405290816000820154815260200160018201805461063f90610e66565b80601f016020809104026020016040519081016040528092919081815260200182805461066b90610e66565b80156106b85780601f1061068d576101008083540402835291602001916106b8565b820191906000526020600020905b81548152906001019060200180831161069b57829003601f168201915b505050505081526020016002820160009054906101000a900460ff161515151581526020016002820160019054906101000a900460ff16151515158152505082828151811061070a576107096111ef565b5b6020026020010181905250808061072090610dc0565b9150506105e1565b50809250505090565b600160205280600052604060002060009150905080600001549080600101805461075a90610e66565b80601f016020809104026020016040519081016040528092919081815260200182805461078690610e66565b80156107d35780601f106107a8576101008083540402835291602001916107d3565b820191906000526020600020905b8154815290600101906020018083116107b657829003601f168201915b5050505050908060020160009054906101000a900460ff16908060020160019054906101000a900460ff16905084565b60005481565b604051806080016040528060008152602001606081526020016000151581526020016000151581525090565b600080fd5b600080fd5b6000819050919050565b6108528161083f565b811461085d57600080fd5b50565b60008135905061086f81610849565b92915050565b60006020828403121561088b5761088a610835565b5b600061089984828501610860565b91505092915050565b600080fd5b600080fd5b600080fd5b60008083601f8401126108c7576108c66108a2565b5b8235905067ffffffffffffffff8111156108e4576108e36108a7565b5b602083019150836001820283011115610900576108ff6108ac565b5b9250929050565b6000806020838503121561091e5761091d610835565b5b600083013567ffffffffffffffff81111561093c5761093b61083a565b5b610948858286016108b1565b92509250509250929050565b61095d8161083f565b82525050565b60006020820190506109786000830184610954565b92915050565b600081519050919050565b600082825260208201905092915050565b6000819050602082019050919050565b6109b38161083f565b82525050565b600081519050919050565b600082825260208201905092915050565b60005b838110156109f35780820151818401526020810190506109d8565b60008484015250505050565b6000601f19601f8301169050919050565b6000610a1b826109b9565b610a2581856109c4565b9350610a358185602086016109d5565b610a3e816109ff565b840191505092915050565b60008115159050919050565b610a5e81610a49565b82525050565b6000608083016000830151610a7c60008601826109aa565b5060208301518482036020860152610a948282610a10565b9150506040830151610aa96040860182610a55565b506060830151610abc6060860182610a55565b508091505092915050565b6000610ad38383610a64565b905092915050565b6000602082019050919050565b6000610af38261097e565b610afd8185610989565b935083602082028501610b0f8561099a565b8060005b85811015610b4b5784840389528151610b2c8582610ac7565b9450610b3783610adb565b925060208a01995050600181019050610b13565b50829750879550505050505092915050565b60006020820190508181036000830152610b778184610ae8565b905092915050565b600082825260208201905092915050565b6000610b9b826109b9565b610ba58185610b7f565b9350610bb58185602086016109d5565b610bbe816109ff565b840191505092915050565b610bd281610a49565b82525050565b6000608082019050610bed6000830187610954565b8181036020830152610bff8186610b90565b9050610c0e6040830185610bc9565b610c1b6060830184610bc9565b95945050505050565b7f5461736b206e6f7420666f756e64000000000000000000000000000000000000600082015250565b6000610c5a600e83610b7f565b9150610c6582610c24565b602082019050919050565b60006020820190508181036000830152610c8981610c4d565b9050919050565b7f5461736b2064656c657465640000000000000000000000000000000000000000600082015250565b6000610cc6600c83610b7f565b9150610cd182610c90565b602082019050919050565b60006020820190508181036000830152610cf581610cb9565b9050919050565b6000604082019050610d116000830185610954565b610d1e6020830184610bc9565b9392505050565b7f456d70747920636f6e74656e7400000000000000000000000000000000000000600082015250565b6000610d5b600d83610b7f565b9150610d6682610d25565b602082019050919050565b60006020820190508181036000830152610d8a81610d4e565b9050919050565b7f4e487b7100000000000000000000000000000000000000000000000000000000600052601160045260246000fd5b6000610dcb8261083f565b91507fffffffffffffffffffffffffffffffffffffffffffffffffffffffffffffffff8203610dfd57610dfc610d91565b5b600182019050919050565b7f4e487b7100000000000000000000000000000000000000000000000000000000600052604160045260246000fd5b7f4e487b7100000000000000000000000000000000000000000000000000000000600052602260045260246000fd5b60006002820490506001821680610e7e57607f821691505b602082108103610e9157610e90610e37565b5b50919050565b60008190508160005260206000209050919050565b60006020601f8301049050919050565b600082821b905092915050565b600060088302610ef97fffffffffffffffffffffffffffffffffffffffffffffffffffffffffffffffff82610ebc565b610f038683610ebc565b95508019841693508086168417925050509392505050565b6000819050919050565b6000610f40610f3b610f368461083f565b610f1b565b61083f565b9050919050565b6000819050919050565b610f5a83610f25565b610f6e610f6682610f47565b848454610ec9565b825550505050565b600090565b610f83610f76565b610f8e818484610f51565b505050565b5b81811015610fb257610fa7600082610f7b565b600181019050610f94565b5050565b601f821115610ff757610fc881610e97565b610fd184610eac565b81016020851015610fe0578190505b610ff4610fec85610eac565b830182610f93565b50505b505050565b600082821c905092915050565b600061101a60001984600802610ffc565b1980831691505092915050565b60006110338383611009565b9150826002028217905092915050565b61104c826109b9565b67ffffffffffffffff81111561106557611064610e08565b5b61106f8254610e66565b61107a828285610fb6565b600060209050601f8311600181146110ad576000841561109b578287015190505b6110a58582611027565b86555061110d565b601f1984166110bb86610e97565b60005b828110156110e3578489015182556001820191506020850194506020810190506110be565b8683101561110057848901516110fc601f891682611009565b8355505b6001600288020188555050505b505050505050565b82818337600083830152505050565b60006111308385610b7f565b935061113d838584611115565b611146836109ff565b840190509392505050565b60006040820190506111666000830186610954565b8181036020830152611179818486611124565b9050949350505050565b7f416c72656164792064656c657465640000000000000000000000000000000000600082015250565b60006111b9600f83610b7f565b91506111c482611183565b602082019050919050565b600060208201905081810360008301526111e8816111ac565b9050919050565b7f4e487b7100000000000000000000000000000000000000000000000000000000600052603260045260246000fdfea26469706673582212204027b2eceffccb7b39869f4c60a3b3552679b2bf3a8e4f97e243461de0a479d964736f6c63430008130033",
  "linkReferences": {},
  "deployedLinkReferences": {}
}