{
  "_format": "hh-sol-artifact-1",
  "contractName": "TodoList",
  "sourceName": "contracts/TodoList.sol",
  "abi": [
    {
      "anonymous": false,
      "inputs": [
        {
          "indexed": false,
          "internalType": "uint256",
          "name": "id",
          "type": "uint256"
        },
        {
          "indexed": false,
          "internalType": "string",
          "name": "content",
          "type": "string"
        }
      ],
      "name": "TaskCreated",
      "type": "event"
    },
    {
      "anonymous": false,
      "inputs": [
        {
          "indexed": false,
          "internalType": "uint256",
          "name": "id",
          "type": "uint256"
        }
      ],
      "name": "TaskDeleted",
      "type": "event"
    },
    {
      "anonymous": false,
      "inputs": [
        {
          "indexed": false,
          "internalType": "uint256",
          "name": "id",
          "type": "uint256"
        },
        {
          "indexed": false,
          "internalType": "bool",
          "name": "completed",
          "type": "bool"
        }
      ],
      "name": "TaskToggled",
      "type": "event"
    },
    {
      "inputs": [
        {
          "internalType": "uint8[]",
          "name": "actionTypes",
          "type": "uint8[]"
        },
        {
          "internalType": "uint256[]",
          "name": "ids",
          "type": "uint256[]"
        },
        {
          "internalType": "string[]",
          "name": "contents",
          "type": "string[]"
        }
      ],
      "name": "batchActions",
      "outputs": [],
      "stateMutability": "nonpayable",
      "type": "function"
    },
    {
      "inputs": [
        {
          "internalType": "string",
          "name": "_content",
          "type": "string"
        }
      ],
      "name": "createTask",
      "outputs": [],
      "stateMutability": "nonpayable",
      "type": "function"
    },
    {
      "inputs": [
        {
          "internalType": "uint256",
          "name": "_id",
          "type": "uint256"
        }
      ],
      "name": "deleteTask",
      "outputs": [],
      "stateMutability": "nonpayable",
      "type": "function"
    },
    {
      "inputs": [],
      "name": "getAllTasks",
      "outputs": [
        {
          "components": [
            {
              "internalType": "uint256",
              "name": "id",
              "type": "uint256"
            },
            {
              "internalType": "string",
              "name": "content",
              "type": "string"
            },
            {
              "internalType": "bool",
              "name": "completed",
              "type": "bool"
            },
            {
              "internalType": "bool",
              "name": "deleted",
              "type": "bool"
            }
          ],
          "internalType": "struct TodoList.Task[]",
          "name": "",
          "type": "tuple[]"
        }
      ],
      "stateMutability": "view",
      "type": "function"
    },
    {
      "inputs": [],
      "name": "taskCount",
      "outputs": [
        {
          "internalType": "uint256",
          "name": "",
          "type": "uint256"
        }
      ],
      "stateMutability": "view",
      "type": "function"
    },
    {
      "inputs": [
        {
          "internalType": "uint256",
          "name": "",
          "type": "uint256"
        }
      ],
      "name": "taskIds",
      "outputs": [
        {
          "internalType": "uint256",
          "name": "",
          "type": "uint256"
        }
      ],
      "stateMutability": "view",
      "type": "function"
    },
    {
      "inputs": [
        {
          "internalType": "uint256",
          "name": "",
          "type": "uint256"
        }
      ],
      "name": "tasks",
      "outputs": [
        {
          "internalType": "uint256",
          "name": "id",
          "type": "uint256"
        },
        {
          "internalType": "string",
          "name": "content",
          "type": "string"
        },
        {
          "internalType": "bool",
          "name": "completed",
          "type": "bool"
        },
        {
          "internalType": "bool",
          "name": "deleted",
          "type": "bool"
        }
      ],
      "stateMutability": "view",
      "type": "function"
    },
    {
      "inputs": [
        {
          "internalType": "uint256",
          "name": "_id",
          "type": "uint256"
        }
      ],
      "name": "toggleComplete",
      "outputs": [],
      "stateMutability": "nonpayable",
      "type": "function"
    }
  ],
  "bytecode": "0x60806040526000805534801561001457600080fd5b5061170c806100246000396000f3fe608060405234801561001057600080fd5b50600436106100885760003560e01c8063779900b41161005b578063779900b414610111578063779b65111461012f5780638d9776721461014b578063b6cb58a51461017e57610088565b80630951e5bd1461008d578063111002aa146100a957806339118d25146100c5578063560f3192146100f5575b600080fd5b6100a760048036038101906100a29190610a33565b61019c565b005b6100c360048036038101906100be9190610ac5565b6102c8565b005b6100df60048036038101906100da9190610a33565b610475565b6040516100ec9190610b21565b60405180910390f35b61010f600480360381019061010a9190610a33565b610499565b005b6101196105a1565b6040516101269190610d1b565b60405180910390f35b61014960048036038101906101449190610e3f565b610758565b005b61016560048036038101906101609190610a33565b6108ef565b6040516101759493929190610f4c565b60405180910390f35b6101866109c1565b6040516101939190610b21565b60405180910390f35b600060016000838152602001908152602001600020905060008160000154036101fa576040517f08c379a00000000000000000000000000000000000000000000000000000000081526004016101f190610fe4565b60405180910390fd5b8060020160019054906101000a900460ff161561024c576040517f08c379a000000000000000000000000000000000000000000000000000000000815260040161024390611050565b60405180910390fd5b8060020160009054906101000a900460ff16158160020160006101000a81548160ff0219169083151502179055507fe668c7a227d9261aa1f964bf5a852ab642446a7af6c29405caf8d0e9ce2c11f0828260020160009054906101000a900460ff166040516102bc929190611070565b60405180910390a15050565b6000828290501161030e576040517f08c379a0000000000000000000000000000000000000000000000000000000008152600401610305906110e5565b60405180910390fd5b60008081548092919061032090611134565b91905055506040518060800160405280600054815260200183838080601f016020809104026020016040519081016040528093929190818152602001838380828437600081840152601f19601f8201169050808301925050505050505081526020016000151581526020016000151581525060016000805481526020019081526020016000206000820151816000015560208201518160010190816103c591906113b7565b5060408201518160020160006101000a81548160ff02191690831515021790555060608201518160020160016101000a81548160ff021916908315150217905550905050600260005490806001815401808255809150506001900390600052602060002001600090919091909150557fa5ed9e6226c584326505694539c95cb0e3238ae09bcda5a65c00bbfdab1c66626000548383604051610469939291906114c5565b60405180910390a15050565b6002818154811061048557600080fd5b906000526020600020016000915090505481565b600060016000838152602001908152602001600020905060008160000154036104f7576040517f08c379a00000000000000000000000000000000000000000000000000000000081526004016104ee90610fe4565b60405180910390fd5b8060020160019054906101000a900460ff1615610549576040517f08c379a000000000000000000000000000000000000000000000000000000000815260040161054090611543565b60405180910390fd5b60018160020160016101000a81548160ff0219169083151502179055507fd078b251d950cc55c44340be1db732337ef4939a76e1367ee271ad2cb19c46af826040516105959190610b21565b60405180910390a15050565b60606000600280549050905060008167ffffffffffffffff8111156105c9576105c861117c565b5b60405190808252806020026020018201604052801561060257816020015b6105ef6109c7565b8152602001906001900390816105e75790505b50905060005b8281101561074f57600160006002838154811061062857610627611563565b5b9060005260206000200154815260200190815260200160002060405180608001604052908160008201548152602001600182018054610666906111da565b80601f0160208091040260200160405190810160405280929190818152602001828054610692906111da565b80156106df5780601f106106b4576101008083540402835291602001916106df565b820191906000526020600020905b8154815290600101906020018083116106c257829003601f168201915b505050505081526020016002820160009054906101000a900460ff161515151581526020016002820160019054906101000a900460ff16151515158152505082828151811061073157610730611563565b5b6020026020010181905250808061074790611134565b915050610608565b50809250505090565b838390508686905014801561077257508181905086869050145b6107b1576040517f08c379a00000000000000000000000000000000000000000000000000000000081526004016107a8906115de565b60405180910390fd5b60005b868690508110156108e65760018787838181106107d4576107d3611563565b5b90506020020160208101906107e99190611637565b60ff16036108235761081e83838381811061080757610806611563565b5b90506020028101906108199190611673565b6102c8565b6108d3565b600287878381811061083857610837611563565b5b905060200201602081019061084d9190611637565b60ff160361087c5761087785858381811061086b5761086a611563565b5b9050602002013561019c565b6108d2565b600387878381811061089157610890611563565b5b90506020020160208101906108a69190611637565b60ff16036108d1576108d08585838181106108c4576108c3611563565b5b90506020020135610499565b5b5b5b80806108de90611134565b9150506107b4565b50505050505050565b6001602052806000526040600020600091509050806000015490806001018054610918906111da565b80601f0160208091040260200160405190810160405280929190818152602001828054610944906111da565b80156109915780601f1061096657610100808354040283529160200191610991565b820191906000526020600020905b81548152906001019060200180831161097457829003601f168201915b5050505050908060020160009054906101000a900460ff16908060020160019054906101000a900460ff16905084565b60005481565b604051806080016040528060008152602001606081526020016000151581526020016000151581525090565b600080fd5b600080fd5b6000819050919050565b610a10816109fd565b8114610a1b57600080fd5b50565b600081359050610a2d81610a07565b92915050565b600060208284031215610a4957610a486109f3565b5b6000610a5784828501610a1e565b91505092915050565b600080fd5b600080fd5b600080fd5b60008083601f840112610a8557610a84610a60565b5b8235905067ffffffffffffffff811115610aa257610aa1610a65565b5b602083019150836001820283011115610abe57610abd610a6a565b5b9250929050565b60008060208385031215610adc57610adb6109f3565b5b600083013567ffffffffffffffff811115610afa57610af96109f8565b5b610b0685828601610a6f565b92509250509250929050565b610b1b816109fd565b82525050565b6000602082019050610b366000830184610b12565b92915050565b600081519050919050565b600082825260208201905092915050565b6000819050602082019050919050565b610b71816109fd565b82525050565b600081519050919050565b600082825260208201905092915050565b60005b83811015610bb1578082015181840152602081019050610b96565b60008484015250505050565b6000601f19601f8301169050919050565b6000610bd982610b77565b610be38185610b82565b9350610bf3818560208601610b93565b610bfc81610bbd565b840191505092915050565b60008115159050919050565b610c1c81610c07565b82525050565b6000608083016000830151610c3a6000860182610b68565b5060208301518482036020860152610c528282610bce565b9150506040830151610c676040860182610c13565b506060830151610c7a6060860182610c13565b508091505092915050565b6000610c918383610c22565b905092915050565b6000602082019050919050565b6000610cb182610b3c565b610cbb8185610b47565b935083602082028501610ccd85610b58565b8060005b85811015610d095784840389528151610cea8582610c85565b9450610cf583610c99565b925060208a01995050600181019050610cd1565b50829750879550505050505092915050565b60006020820190508181036000830152610d358184610ca6565b905092915050565b60008083601f840112610d5357610d52610a60565b5b8235905067ffffffffffffffff811115610d7057610d6f610a65565b5b602083019150836020820283011115610d8c57610d8b610a6a565b5b9250929050565b60008083601f840112610da957610da8610a60565b5b8235905067ffffffffffffffff811115610dc657610dc5610a65565b5b602083019150836020820283011115610de257610de1610a6a565b5b9250929050565b60008083601f840112610dff57610dfe610a60565b5b8235905067ffffffffffffffff811115610e1c57610e1b610a65565b5b602083019150836020820283011115610e3857610e37610a6a565b5b9250929050565b60008060008060008060608789031215610e5c57610e5b6109f3565b5b600087013567ffffffffffffffff811115610e7a57610e796109f8565b5b610e8689828a01610d3d565b9650965050602087013567ffffffffffffffff811115610ea957610ea86109f8565b5b610eb589828a01610d93565b9450945050604087013567ffffffffffffffff811115610ed857610ed76109f8565b5b610ee489828a01610de9565b92509250509295509295509295565b600082825260208201905092915050565b6000610f0f82610b77565b610f198185610ef3565b9350610f29818560208601610b93565b610f3281610bbd565b840191505092915050565b610f4681610c07565b82525050565b6000608082019050610f616000830187610b12565b8181036020830152610f738186610f04565b9050610f826040830185610f3d565b610f8f6060830184610f3d565b95945050505050565b7f5461736b206e6f7420666f756e64000000000000000000000000000000000000600082015250565b6000610fce600e83610ef3565b9150610fd982610f98565b602082019050919050565b60006020820190508181036000830152610ffd81610fc1565b9050919050565b7f5461736b2064656c657465640000000000000000000000000000000000000000600082015250565b600061103a600c83610ef3565b915061104582611004565b602082019050919050565b600060208201905081810360008301526110698161102d565b9050919050565b60006040820190506110856000830185610b12565b6110926020830184610f3d565b9392505050565b7f456d70747920636f6e74656e7400000000000000000000000000000000000000600082015250565b60006110cf600d83610ef3565b91506110da82611099565b602082019050919050565b600060208201905081810360008301526110fe816110c2565b9050919050565b7f4e487b7100000000000000000000000000000000000000000000000000000000600052601160045260246000fd5b600061113f826109fd565b91507fffffffffffffffffffffffffffffffffffffffffffffffffffffffffffffffff820361117157611170611105565b5b600182019050919050565b7f4e487b7100000000000000000000000000000000000000000000000000000000600052604160045260246000fd5b7f4e487b7100000000000000000000000000000000000000000000000000000000600052602260045260246000fd5b600060028204905060018216806111f257607f821691505b602082108103611205576112046111ab565b5b50919050565b60008190508160005260206000209050919050565b60006020601f8301049050919050565b600082821b905092915050565b60006008830261126d7fffffffffffffffffffffffffffffffffffffffffffffffffffffffffffffffff82611230565b6112778683611230565b95508019841693508086168417925050509392505050565b6000819050919050565b60006112b46112af6112aa846109fd565b61128f565b6109fd565b9050919050565b6000819050919050565b6112ce83611299565b6112e26112da826112bb565b84845461123d565b825550505050565b600090565b6112f76112ea565b6113028184846112c5565b505050565b5b818110156113265761131b6000826112ef565b600181019050611308565b5050565b601f82111561136b5761133c8161120b565b61134584611220565b81016020851015611354578190505b61136861136085611220565b830182611307565b50505b505050565b600082821c905092915050565b600061138e60001984600802611370565b1980831691505092915050565b60006113a7838361137d565b9150826002028217905092915050565b6113c082610b77565b67ffffffffffffffff8111156113d9576113d861117c565b5b6113e382546111da565b6113ee82828561132a565b600060209050601f831160018114611421576000841561140f578287015190505b611419858261139b565b865550611481565b601f19841661142f8661120b565b60005b8281101561145757848901518255600182019150602085019450602081019050611432565b868310156114745784890151611470601f89168261137d565b8355505b6001600288020188555050505b505050505050565b82818337600083830152505050565b60006114a48385610ef3565b93506114b1838584611489565b6114ba83610bbd565b840190509392505050565b60006040820190506114da6000830186610b12565b81810360208301526114ed818486611498565b9050949350505050565b7f416c72656164792064656c657465640000000000000000000000000000000000600082015250565b600061152d600f83610ef3565b9150611538826114f7565b602082019050919050565b6000602082019050818103600083015261155c81611520565b9050919050565b7f4e487b7100000000000000000000000000000000000000000000000000000000600052603260045260246000fd5b7f4c656e677468206d69736d617463680000000000000000000000000000000000600082015250565b60006115c8600f83610ef3565b91506115d382611592565b602082019050919050565b600060208201905081810360008301526115f7816115bb565b9050919050565b600060ff82169050919050565b611614816115fe565b811461161f57600080fd5b50565b6000813590506116318161160b565b92915050565b60006020828403121561164d5761164c6109f3565b5b600061165b84828501611622565b91505092915050565b600080fd5b600080fd5b600080fd5b600080833560016020038436030381126116905761168f611664565b5b80840192508235915067ffffffffffffffff8211156116b2576116b1611669565b5b6020830192506001820236038313156116ce576116cd61166e565b5b50925092905056fea26469706673582212202638c0c2e36515d90d25bb858403105e872f42fa9ef0b395a2ea82e0d2e9d4c964736f6c63430008130033",
  "linkReferences": {},
  "deployedLinkReferences": {}
}